{
  "_format": "hh-sol-artifact-1",
  "contractName": "SampleDiceGame",
  "sourceName": "contracts/SampleDiceGame.sol",
  "abi": [
    {
      "inputs": [
        {
          "internalType": "address",
          "name": "_rfCoordinator",
          "type": "address"
        }
      ],
      "stateMutability": "nonpayable",
      "type": "constructor"
    },
    {
      "anonymous": false,
      "inputs": [
        {
          "indexed": false,
          "internalType": "uint256",
          "name": "",
          "type": "uint256"
        },
        {
          "indexed": false,
          "internalType": "uint256[]",
          "name": "",
          "type": "uint256[]"
        },
        {
          "indexed": false,
          "internalType": "bool",
          "name": "",
          "type": "bool"
        }
      ],
      "name": "GameResult",
      "type": "event"
    },
    {
      "anonymous": false,
      "inputs": [
        {
          "indexed": true,
          "internalType": "address",
          "name": "previousOwner",
          "type": "address"
        },
        {
          "indexed": true,
          "internalType": "address",
          "name": "newOwner",
          "type": "address"
        }
      ],
      "name": "OwnershipTransferred",
      "type": "event"
    },
    {
      "anonymous": false,
      "inputs": [
        {
          "indexed": false,
          "internalType": "address",
          "name": "",
          "type": "address"
        },
        {
          "indexed": false,
          "internalType": "uint256",
          "name": "",
          "type": "uint256"
        },
        {
          "indexed": false,
          "internalType": "uint256[]",
          "name": "",
          "type": "uint256[]"
        }
      ],
      "name": "RequestRandomness",
      "type": "event"
    },
    {
      "inputs": [
        {
          "internalType": "uint256",
          "name": "_randomId",
          "type": "uint256"
        },
        {
          "internalType": "uint256[]",
          "name": "_randomValue",
          "type": "uint256[]"
        }
      ],
      "name": "fulfillRandomness",
      "outputs": [],
      "stateMutability": "nonpayable",
      "type": "function"
    },
    {
      "inputs": [
        {
          "internalType": "uint256",
          "name": "_randomId",
          "type": "uint256"
        }
      ],
      "name": "getPredictionResult",
      "outputs": [
        {
          "internalType": "uint8",
          "name": "result",
          "type": "uint8"
        }
      ],
      "stateMutability": "view",
      "type": "function"
    },
    {
      "inputs": [],
      "name": "owner",
      "outputs": [
        {
          "internalType": "address",
          "name": "",
          "type": "address"
        }
      ],
      "stateMutability": "view",
      "type": "function"
    },
    {
      "inputs": [
        {
          "internalType": "uint256[]",
          "name": "dicePredictions",
          "type": "uint256[]"
        }
      ],
      "name": "playDice",
      "outputs": [],
      "stateMutability": "nonpayable",
      "type": "function"
    },
    {
      "inputs": [
        {
          "internalType": "uint256",
          "name": "",
          "type": "uint256"
        }
      ],
      "name": "predictionResult",
      "outputs": [
        {
          "internalType": "uint8",
          "name": "",
          "type": "uint8"
        }
      ],
      "stateMutability": "view",
      "type": "function"
    },
    {
      "inputs": [
        {
          "internalType": "uint256",
          "name": "",
          "type": "uint256"
        },
        {
          "internalType": "uint256",
          "name": "",
          "type": "uint256"
        }
      ],
      "name": "predictions",
      "outputs": [
        {
          "internalType": "uint256",
          "name": "",
          "type": "uint256"
        }
      ],
      "stateMutability": "view",
      "type": "function"
    },
    {
      "inputs": [],
      "name": "randomId",
      "outputs": [
        {
          "internalType": "uint256",
          "name": "",
          "type": "uint256"
        }
      ],
      "stateMutability": "view",
      "type": "function"
    },
    {
      "inputs": [
        {
          "internalType": "uint256",
          "name": "",
          "type": "uint256"
        },
        {
          "internalType": "uint256",
          "name": "",
          "type": "uint256"
        }
      ],
      "name": "randomValue",
      "outputs": [
        {
          "internalType": "uint256",
          "name": "",
          "type": "uint256"
        }
      ],
      "stateMutability": "view",
      "type": "function"
    },
    {
      "inputs": [
        {
          "internalType": "uint256",
          "name": "index",
          "type": "uint256"
        }
      ],
      "name": "readRandomValues",
      "outputs": [
        {
          "internalType": "uint256[]",
          "name": "",
          "type": "uint256[]"
        }
      ],
      "stateMutability": "view",
      "type": "function"
    },
    {
      "inputs": [],
      "name": "renounceOwnership",
      "outputs": [],
      "stateMutability": "nonpayable",
      "type": "function"
    },
    {
      "inputs": [],
      "name": "rfCoordinator",
      "outputs": [
        {
          "internalType": "address",
          "name": "",
          "type": "address"
        }
      ],
      "stateMutability": "view",
      "type": "function"
    },
    {
      "inputs": [
        {
          "internalType": "address",
          "name": "_rfCoordinator",
          "type": "address"
        }
      ],
      "name": "setRFCoordinator",
      "outputs": [],
      "stateMutability": "nonpayable",
      "type": "function"
    },
    {
      "inputs": [
        {
          "internalType": "address",
          "name": "newOwner",
          "type": "address"
        }
      ],
      "name": "transferOwnership",
      "outputs": [],
      "stateMutability": "nonpayable",
      "type": "function"
    }
  ],
  "bytecode": "0x60806040523480156200001157600080fd5b50604051620017fd380380620017fd8339818101604052810190620000379190620001d5565b620000576200004b6200009f60201b60201c565b620000a760201b60201c565b80600560006101000a81548173ffffffffffffffffffffffffffffffffffffffff021916908373ffffffffffffffffffffffffffffffffffffffff1602179055505062000207565b600033905090565b60008060009054906101000a900473ffffffffffffffffffffffffffffffffffffffff169050816000806101000a81548173ffffffffffffffffffffffffffffffffffffffff021916908373ffffffffffffffffffffffffffffffffffffffff1602179055508173ffffffffffffffffffffffffffffffffffffffff168173ffffffffffffffffffffffffffffffffffffffff167f8be0079c531659141344cd1fd0a4f28419497f9722a3daafe3b4186f6b6457e060405160405180910390a35050565b600080fd5b600073ffffffffffffffffffffffffffffffffffffffff82169050919050565b60006200019d8262000170565b9050919050565b620001af8162000190565b8114620001bb57600080fd5b50565b600081519050620001cf81620001a4565b92915050565b600060208284031215620001ee57620001ed6200016b565b5b6000620001fe84828501620001be565b91505092915050565b6115e680620002176000396000f3fe608060405234801561001057600080fd5b50600436106100cf5760003560e01c80638da5cb5b1161008c578063af9d26df11610066578063af9d26df14610200578063cdf128bc14610230578063f0fa37d514610260578063f2fde38b1461027c576100cf565b80638da5cb5b146101a85780639b90d91b146101c65780639e31f441146101e4576100cf565b8063025ae4e2146100d457806308868017146101045780630ab14d8a14610120578063715018a61461013e578063732619bc146101485780638147fbac14610178575b600080fd5b6100ee60048036038101906100e99190610bda565b610298565b6040516100fb9190610c29565b60405180910390f35b61011e60048036038101906101199190610ca9565b6102c9565b005b6101286105bf565b6040516101359190610c29565b60405180910390f35b6101466105c5565b005b610162600480360381019061015d9190610d09565b6105d9565b60405161016f9190610d52565b60405180910390f35b610192600480360381019061018d9190610d09565b6105f9565b60405161019f9190610e2b565b60405180910390f35b6101b0610664565b6040516101bd9190610e8e565b60405180910390f35b6101ce61068d565b6040516101db9190610e8e565b60405180910390f35b6101fe60048036038101906101f99190610ea9565b6106b3565b005b61021a60048036038101906102159190610d09565b6108bc565b6040516102279190610d52565b60405180910390f35b61024a60048036038101906102459190610bda565b6108e6565b6040516102579190610c29565b60405180910390f35b61027a60048036038101906102759190610f22565b610917565b005b61029660048036038101906102919190610f22565b610963565b005b600260205281600052604060002081815481106102b457600080fd5b90600052602060002001600091509150505481565b600560009054906101000a900473ffffffffffffffffffffffffffffffffffffffff1673ffffffffffffffffffffffffffffffffffffffff163373ffffffffffffffffffffffffffffffffffffffff161461032357600080fd5b60006002600085815260200190815260200160002080548060200260200160405190810160405280929190818152602001828054801561038257602002820191906000526020600020905b81548152602001906001019080831161036e575b5050505050905060008151116103cd576040517f08c379a00000000000000000000000000000000000000000000000000000000081526004016103c490610fac565b60405180910390fd5b60005b838390508110156104fc576000600160068686858181106103f4576103f3610fcc565b5b90506020020135610405919061102a565b61040f919061108a565b90506001600087815260200190815260200160002081908060018154018082558091505060019003906000526020600020016000909190919091505560005b83518110156104e75783818151811061046a57610469610fcc565b5b602002602001015182036104d457836001855161048791906110be565b8151811061049857610497610fcc565b5b60200260200101518482815181106104b3576104b2610fcc565b5b602002602001018181525050600184510384528080600190039150506104e7565b80806104df906110fc565b91505061044e565b505080806104f490611144565b9150506103d0565b5060008082510361053d5760016003600087815260200190815260200160002060006101000a81548160ff021916908360ff1602179055506001905061056b565b60026003600087815260200190815260200160002060006101000a81548160ff021916908360ff1602179055505b7fcb48a5f9d3972c5dc17630b901af288736054cf114b57fa4c547c65879be21018560016000888152602001908152602001600020836040516105b09392919061127d565b60405180910390a15050505050565b60045481565b6105cd6109e6565b6105d76000610a64565b565b60036020528060005260406000206000915054906101000a900460ff1681565b60606001600083815260200190815260200160002080548060200260200160405190810160405280929190818152602001828054801561065857602002820191906000526020600020905b815481526020019060010190808311610644575b50505050509050919050565b60008060009054906101000a900473ffffffffffffffffffffffffffffffffffffffff16905090565b600560009054906101000a900473ffffffffffffffffffffffffffffffffffffffff1681565b60008282905090508060001080156106cb5750600581105b61070a576040517f08c379a00000000000000000000000000000000000000000000000000000000081526004016107019061132d565b60405180910390fd5b60005b818110156107a95783838281811061072857610727610fcc565b5b9050602002013560001080156107575750600784848381811061074e5761074d610fcc565b5b90506020020135105b610796576040517f08c379a000000000000000000000000000000000000000000000000000000000815260040161078d906113bf565b60405180910390fd5b80806107a190611144565b91505061070d565b50600560009054906101000a900473ffffffffffffffffffffffffffffffffffffffff1673ffffffffffffffffffffffffffffffffffffffff16636359e4bf600454836040518363ffffffff1660e01b81526004016108099291906113df565b600060405180830381600087803b15801561082357600080fd5b505af1158015610837573d6000803e3d6000fd5b505050508282600260006004548152602001908152602001600020919061085f929190610b30565b507f539d0bda50000c14e2d3d3d8a7665187db8922e6e705ecc940bd218f5257d7ee3360045485856040516108979493929190611472565b60405180910390a1600460008154809291906108b290611144565b9190505550505050565b60006003600083815260200190815260200160002060009054906101000a900460ff169050919050565b6001602052816000526040600020818154811061090257600080fd5b90600052602060002001600091509150505481565b61091f6109e6565b80600560006101000a81548173ffffffffffffffffffffffffffffffffffffffff021916908373ffffffffffffffffffffffffffffffffffffffff16021790555050565b61096b6109e6565b600073ffffffffffffffffffffffffffffffffffffffff168173ffffffffffffffffffffffffffffffffffffffff16036109da576040517f08c379a00000000000000000000000000000000000000000000000000000000081526004016109d190611524565b60405180910390fd5b6109e381610a64565b50565b6109ee610b28565b73ffffffffffffffffffffffffffffffffffffffff16610a0c610664565b73ffffffffffffffffffffffffffffffffffffffff1614610a62576040517f08c379a0000000000000000000000000000000000000000000000000000000008152600401610a5990611590565b60405180910390fd5b565b60008060009054906101000a900473ffffffffffffffffffffffffffffffffffffffff169050816000806101000a81548173ffffffffffffffffffffffffffffffffffffffff021916908373ffffffffffffffffffffffffffffffffffffffff1602179055508173ffffffffffffffffffffffffffffffffffffffff168173ffffffffffffffffffffffffffffffffffffffff167f8be0079c531659141344cd1fd0a4f28419497f9722a3daafe3b4186f6b6457e060405160405180910390a35050565b600033905090565b828054828255906000526020600020908101928215610b6c579160200282015b82811115610b6b578235825591602001919060010190610b50565b5b509050610b799190610b7d565b5090565b5b80821115610b96576000816000905550600101610b7e565b5090565b600080fd5b600080fd5b6000819050919050565b610bb781610ba4565b8114610bc257600080fd5b50565b600081359050610bd481610bae565b92915050565b60008060408385031215610bf157610bf0610b9a565b5b6000610bff85828601610bc5565b9250506020610c1085828601610bc5565b9150509250929050565b610c2381610ba4565b82525050565b6000602082019050610c3e6000830184610c1a565b92915050565b600080fd5b600080fd5b600080fd5b60008083601f840112610c6957610c68610c44565b5b8235905067ffffffffffffffff811115610c8657610c85610c49565b5b602083019150836020820283011115610ca257610ca1610c4e565b5b9250929050565b600080600060408486031215610cc257610cc1610b9a565b5b6000610cd086828701610bc5565b935050602084013567ffffffffffffffff811115610cf157610cf0610b9f565b5b610cfd86828701610c53565b92509250509250925092565b600060208284031215610d1f57610d1e610b9a565b5b6000610d2d84828501610bc5565b91505092915050565b600060ff82169050919050565b610d4c81610d36565b82525050565b6000602082019050610d676000830184610d43565b92915050565b600081519050919050565b600082825260208201905092915050565b6000819050602082019050919050565b610da281610ba4565b82525050565b6000610db48383610d99565b60208301905092915050565b6000602082019050919050565b6000610dd882610d6d565b610de28185610d78565b9350610ded83610d89565b8060005b83811015610e1e578151610e058882610da8565b9750610e1083610dc0565b925050600181019050610df1565b5085935050505092915050565b60006020820190508181036000830152610e458184610dcd565b905092915050565b600073ffffffffffffffffffffffffffffffffffffffff82169050919050565b6000610e7882610e4d565b9050919050565b610e8881610e6d565b82525050565b6000602082019050610ea36000830184610e7f565b92915050565b60008060208385031215610ec057610ebf610b9a565b5b600083013567ffffffffffffffff811115610ede57610edd610b9f565b5b610eea85828601610c53565b92509250509250929050565b610eff81610e6d565b8114610f0a57600080fd5b50565b600081359050610f1c81610ef6565b92915050565b600060208284031215610f3857610f37610b9a565b5b6000610f4684828501610f0d565b91505092915050565b600082825260208201905092915050565b7f50726564696374696f6e732063616e2774206265206c657373207468616e2030600082015250565b6000610f96602083610f4f565b9150610fa182610f60565b602082019050919050565b60006020820190508181036000830152610fc581610f89565b9050919050565b7f4e487b7100000000000000000000000000000000000000000000000000000000600052603260045260246000fd5b7f4e487b7100000000000000000000000000000000000000000000000000000000600052601260045260246000fd5b600061103582610ba4565b915061104083610ba4565b9250826110505761104f610ffb565b5b828206905092915050565b7f4e487b7100000000000000000000000000000000000000000000000000000000600052601160045260246000fd5b600061109582610ba4565b91506110a083610ba4565b92508282019050808211156110b8576110b761105b565b5b92915050565b60006110c982610ba4565b91506110d483610ba4565b92508282039050818111156110ec576110eb61105b565b5b92915050565b6000819050919050565b6000611107826110f2565b91507f7fffffffffffffffffffffffffffffffffffffffffffffffffffffffffffffff82036111395761113861105b565b5b600182019050919050565b600061114f82610ba4565b91507fffffffffffffffffffffffffffffffffffffffffffffffffffffffffffffffff82036111815761118061105b565b5b600182019050919050565b600081549050919050565b60008190508160005260206000209050919050565b60008160001c9050919050565b6000819050919050565b60006111d66111d1836111ac565b6111b9565b9050919050565b60006111e982546111c3565b9050919050565b6000600182019050919050565b60006112088261118c565b6112128185610d78565b935061121d83611197565b8060005b8381101561125557611232826111dd565b61123c8882610da8565b9750611247836111f0565b925050600181019050611221565b5085935050505092915050565b60008115159050919050565b61127781611262565b82525050565b60006060820190506112926000830186610c1a565b81810360208301526112a481856111fd565b90506112b3604083018461126e565b949350505050565b7f4d696e20312c204d617820342064696365732063616e20626520706c6179656460008201527f206174207468652073616d652074696d65000000000000000000000000000000602082015250565b6000611317603183610f4f565b9150611322826112bb565b604082019050919050565b600060208201905081810360008301526113468161130a565b9050919050565b7f446963652050726564696374696f6e732073686f756c6420626520626574776560008201527f656e203120616e64203600000000000000000000000000000000000000000000602082015250565b60006113a9602a83610f4f565b91506113b48261134d565b604082019050919050565b600060208201905081810360008301526113d88161139c565b9050919050565b60006040820190506113f46000830185610c1a565b6114016020830184610c1a565b9392505050565b600080fd5b82818337505050565b60006114228385610d78565b93507f07ffffffffffffffffffffffffffffffffffffffffffffffffffffffffffffff83111561145557611454611408565b5b60208302925061146683858461140d565b82840190509392505050565b60006060820190506114876000830187610e7f565b6114946020830186610c1a565b81810360408301526114a7818486611416565b905095945050505050565b7f4f776e61626c653a206e6577206f776e657220697320746865207a65726f206160008201527f6464726573730000000000000000000000000000000000000000000000000000602082015250565b600061150e602683610f4f565b9150611519826114b2565b604082019050919050565b6000602082019050818103600083015261153d81611501565b9050919050565b7f4f776e61626c653a2063616c6c6572206973206e6f7420746865206f776e6572600082015250565b600061157a602083610f4f565b915061158582611544565b602082019050919050565b600060208201905081810360008301526115a98161156d565b905091905056fea26469706673582212204d0daa8d257ec87fff693f0451bcc2ec292d0d7c98991bc97d5b587d2360245464736f6c63430008110033",
  "linkReferences": {},
  "deployedLinkReferences": {}
}